:020000040800F2
:1000000078060020D1010008D9010008DB010008B2
:10001000DD010008DF010008E10100080000000028
:10002000000000000000000000000000E3010008E4
:10003000E501000800000000E7010008E9010008F0
:10004000EB010008EB010008EB010008EB010008E0
:10005000EB010008EB010008EB010008EB010008D0
:10006000EB010008EB010008EB010008EB010008C0
:10007000EB010008EB010008EB010008EB010008B0
:10008000EB010008EB010008EB010008EB010008A0
:10009000EB010008EB010008EB010008EB01000890
:1000A000EB010008EB010008EB010008EB01000880
:1000B000EB010008EB010008EB010008EB01000870
:1000C000EB010008EB010008EB010008EB01000860
:1000D000EB010008EB010008EB010008EB01000850
:1000E000EB010008EB010008EB010008EB01000840
:1000F000EB010008EB010008EB010008EB01000830
:10010000EB010008EB010008EB010008EB0100081F
:10011000EB010008EB010008EB010008EB0100080F
:10012000EB010008EB010008EB010008EB010008FF
:1001300000F002F800F03CF80AA090E8000C8244BD
:100140008344AAF10107DA4501D100F031F8AFF29A
:10015000090EBAE80F0013F0010F18BFFB1A43F0A5
:1001600001031847E402000004030000103A24BF12
:1001700078C878C1FAD8520724BF30C830C144BF0C
:1001800004680C607047000000230024002500264E
:10019000103A28BF78C1FBD8520728BF30C148BFEA
:1001A0000B6070471FB500F048F91FBD10B510BDBA
:1001B00000F009F91146FFF7F5FF00F0F9F800F03B
:1001C00027F903B4FFF7F2FF03BC00F02FF900009A
:1001D0000948804709480047FEE7FEE7FEE7FEE7DB
:1001E000FEE7FEE7FEE7FEE7FEE7FEE70448054917
:1001F000054A064B70470000B502000831010008AF
:100200007800002078060020780200207802002084
:10021000002100205E4A126842F480325C4B1A6072
:1002200000BF5B4A126802F40030491C10B9B1F5F6
:10023000A06FF6D1564A126812F4003F01D0012097
:1002400000E00020012830D1514A5268504B5A60DA
:100250001A4652685A601A4652685A601A465268DC
:1002600022F47C125A601A46526842F498125A607C
:100270001A46126842F080721A6000BF444A12683F
:1002800012F0007FFAD0424A526822F00302404B3B
:100290005A601A46526842F002025A6000BF3C4A55
:1002A000526802F00C02082AF9D1704710B5FFF726
:1002B000AFFF10BD10B53648006840F0010034496A
:1002C000086008464068334908403149486008469C
:1002D0000068314908402E4908600846006820F44B
:1002E000802008600846406820F4FE0048604FF413
:1002F0001F0088600020C862FFF7D8FF4FF0006041
:100300002649086010BD30B50021002000220023DE
:100310001F4C646804F00C0121B1042906D008299F
:1003200025D107E01E4C1F4D2C6024E01C4C1D4DB8
:100330002C6020E0164C646804F47010144C64685F
:1003400004F48032022404EB904022B9164C44435A
:10035000144D2C600AE00E4CE46A04F00F04631C98
:100360000F4CB4FBF3F444430E4D2C6003E00C4CF3
:100370000C4D2C6000BF00BF054C6468C4F303142F
:100380000A4D295D074C2468CC40064D2C6030BDD9
:10039000001002400000FFF8FFFFF6FE08ED00E04D
:1003A00000127A000000002000093D000400002037
:1003B000002100BF00E0491C6429FCDB00207047DD
:1003C000704770477047754600F028F8AE46050044
:1003D0006946534620F00700854618B020B5FFF760
:1003E00005FFBDE820404FF000064FF000074FF03A
:1003F00000084FF0000B21F00701AC46ACE8C00943
:10040000ACE8C009ACE8C009ACE8C0098D4670474B
:100410000446AFF300802046FFF7D3FE0048704744
:1004200014000020004870471800002001491820DF
:10043000ABBEFEE726000200704710B5FFF7F2FFE3
:100440004FF00001016010BD6804000800000020AA
:10045000140000006C0100087C0400081400002057
:10046000640600008801000800366E0100000000EC
:0C04700000000000010203040607080958
:04000005080001D11D
:00000001FF
